:020000040800F2
:10000000000002203904000889040008890400085F
:100010008904000889040008890400080000000021
:10002000000000000000000000000000890400083B
:100030008904000800000000890400088904000801
:10004000890400088904000889040008890400085C
:1000500000000000890400088904000889040008E1
:10006000890400088904000889040008890400083C
:10007000890400088904000889040008890400082C
:10008000890400088904000889040008890400081C
:10009000890400088904000889040008890400080C
:1000A00089040008890400088904000889040008FC
:1000B00089040008890400088904000889040008EC
:1000C00089040008890400088904000889040008DC
:1000D00089040008890400088904000889040008CC
:1000E00089040008890400088904000889040008BC
:1000F00089040008890400088904000889040008AC
:10010000890400088904000889040008890400089B
:10011000890400088904000889040008890400088B
:10012000890400088904000889040008890400087B
:10013000890400088904000889040008890400086B
:10014000890400088904000889040008890400085B
:10015000890400088904000889040008890400084B
:10016000890400088904000889040008890400083B
:10017000890400088904000889040008890400082B
:100180008904000889040008000000000000000045
:10019000000000000000000000000000000000005F
:0801A00089040008890400082D
:1001B00010B5054C237833B9044B13B10448AFF3A1
:1001C00000800123237010BD6400002000000000A7
:1001D0009C13000808B5034B1BB103490348AFF358
:1001E000008008BD00000000680000209C1300088B
:1001F00001F0FF01102A2BDB10F0070F08D010F8D8
:10020000013B013A8B422DD010F0070F42B3F6D1DB
:10021000F0B441EA012141EA014122F007047FF0F4
:1002200000070023F0E80256083C85EA010586EA4B
:10023000010685FA47F5A3FA87F586FA47F6A5FA87
:1002400087F68EB9EED1F0BC01F0FF0102F0070293
:1002500032B110F8013B013A83EA010313B1F8D13E
:100260000020704701387047002D06BF354603381F
:10027000073815F0010F07D1013015F4807F02BF58
:10028000013015F4C03F0130F0BC0138704700BFA9
:1002900080B500AF014800F02BF9FEE7B413000869
:1002A00080B483B000AF0346FB710F4B1B680E4A4E
:1002B00043F0807313600D4B1B680C4A43F001033D
:1002C000136000BF4FF060431B6803F00103002B75
:1002D000F8D04FF06042FB79136000BF0C37BD4689
:1002E0005DF8047B704700BFFCED00E0000E00E00D
:1002F00080B586B000AFF860B9607A6000237B619A
:100300000AE0AFF300800146BB685A1CBA60CAB26B
:100310001A707B6901337B617A697B689A42F0DBF2
:100320007B6818461837BD4680BD80B586B000AFE3
:10033000F860B9607A6000237B6109E0BB685A1CF1
:10034000BA601B781846FFF7ABFF7B6901337B610E
:100350007A697B689A42F1DB7B6818461837BD469C
:1003600080BD80B483B000AF78604FF0FF33184693
:100370000C37BD465DF8047B704780B483B000AF96
:10038000786039603B684FF400525A600023184689
:100390000C37BD465DF8047B704780B483B000AF76
:1003A0007860012318460C37BD465DF8047B704722
:1003B00080B485B000AFF860B9607A600023184659
:1003C0001437BD465DF8047B7047000080B586B0E9
:1003D00000AF7860144A154BD31A7B617B693B618F
:1003E000134B1B68002B02D1114B124A1A60104BA1
:1003F0001A687B6813443A699A4207D200F046F8BB
:1004000003460C221A604FF0FF3309E0084B1B68CB
:10041000FB60074B1A687B681344054A1360FB684E
:1004200018461837BD4680BD0000022000040000B9
:1004300080000020A00000200D488546AFF300801A
:100440000C480D490D4A002302E0D458C45004332F
:10045000C4188C42F9D30A4A0A4C002301E0136005
:100460000432A242FBD300F017F8FFF711FFFEE7BA
:100470000000022000000020640000206414000836
:10048000640000209C000020FEE70000014B18687B
:10049000704700BF0000002070B50D4D0D4C641B6F
:1004A000A4100026A64209D10B4D0C4C00F076FF9B
:1004B000641BA4100026A64205D170BD55F8043B6C
:1004C00098470136EEE755F8043B98470136F2E7C6
:1004D0005C1400085C1400085C1400086014000838
:1004E00002440346934200D1704703F8011BF9E729
:1004F0000FB40A4B13B51C6824B1A36913B9204685
:1005000000F066F805AB049AA1680193204600F05C
:1005100083F902B0BDE8104004B07047000000202D
:10052000002310B50446C0E90033C0E904338360FA
:1005300081814366C2818361194608225C30FFF7DE
:10054000CFFF054B6362054BA362054BE362054B8E
:100550002462236310BD00BFC10D0008E30D000835
:100560001B0E00083F0E0008014900F0AFB800BFA5
:100570001911000870B54A1E682555430E4605F14D
:10058000740100F0C5F8044640B10021C0E900162E
:100590000C30A06005F16802FFF7A2FF204670BD95
:1005A000014800F0B3B800BF94000020014800F0FB
:1005B000AEB800BF94000020014800F0A7B800BF0B
:1005C0008F000020014800F0A2B800BF8F0000207B
:1005D00010B50446FFF7F0FFA3691BB1BDE810405A
:1005E000FFF7F0BFC4E912332365134B134A1B68AE
:1005F000A262A34204BF0123A361204600F020F8B9
:100600006060204600F01CF8A060204600F018F85A
:100610000022E06004216068FFF782FFA0680122E9
:100620000921FFF77DFFE06802221221FFF778FF22
:100630000123A361D2E700BFC413000869050008C5
:10064000F8B50746FFF7ACFF1E4B1E68B36913B938
:100650003046FFF7BDFF4836D6E90134013B03D5EC
:1006600033680BB33668F7E7B4F90C50D5B9164BBD
:10067000E36004F15800656600F047F8FFF796FF65
:10068000C4E90155C4E904552560A561082229463D
:1006900004F15C00FFF724FFC4E90D55C4E91255CD
:1006A0002046F8BD6834D9E704213846FFF762FFD9
:1006B000044630600028D5D1FFF778FF0C233B605B
:1006C000EEE700BFC41300080100FFFF2DE9F84367
:1006D0000646884600F148040027D4E90195B9F19F
:1006E000010905D52468002CF7D13846BDE8F88308
:1006F000AB89012B07D9B5F90E30013303D0294658
:100700003046C04707436835E9E770477047704790
:10071000F8B5CD1C25F0030508350C2D38BF0C2588
:10072000002D064601DBA94203D90C2333600020CB
:10073000F8BD00F0A3FD21490A6814469CB9204F7A
:100740003B6823B92146304600F02AFB3860294631
:10075000304600F025FB431C23D10C233360304688
:1007600000F092FDE3E723685B1B17D40B2B03D942
:1007700023601C44256004E06368A2420CBF0B6048
:100780005360304600F080FD04F10B00231D20F083
:100790000700C21ACCD01B1AA350C9E722466468CE
:1007A000CCE7C41C24F00304A042E3D0211A304655
:1007B00000F0F6FA0130DDD1CFE700BF8400002061
:1007C000880000209368013B002B10B4936008DA86
:1007D0009469A34201DB0A2903D15DF8044B00F0C0
:1007E00033BB1368581C1060197008465DF8044B41
:1007F0007047F8B506460F461446D518AC4201D1ED
:10080000002007E014F8011B3A463046FFF7DAFFF4
:10081000431CF3D1F8BD00002DE9F04F0D469DB00B
:1008200014469846064618B183690BB9FFF7D0FE07
:10083000894B9D421BD175686B6ED90705D4AB8976
:100840009A0502D4A86DFFF761FFAB891B0701D59C
:100850002B69EBB92946304600F05AFBC0B16B6EEC
:10086000DC070ED54FF0FF301DB0BDE8F08F7B4B9D
:100870009D4201D1B568DFE7794B9D4208BFF5681D
:10088000DAE7AB899805EDD4A86DFFF740FFE9E7FB
:100890000023099320238DF82930CDF80C803023D4
:1008A000DFF8C0818DF82A304FF0010923469A46BF
:1008B00013F8012B0AB1252AF9D1BAEB040B0BD09E
:1008C0005B46224629463046FFF793FF013000F091
:1008D000AA80099A5A4409929AF80030002B00F035
:1008E000A28000234FF0FF32CDE905230AF1010A6F
:1008F000049307938DF853301A935446052214F845
:10090000011B5848FFF774FC049AD8B9D10644BFBC
:1009100020238DF85330130744BF2B238DF8533019
:100920009AF800302A2B15D0079A544600204FF031
:100930000A0C214611F8013B303B092B4ED9B0B1CE
:10094000079214E0A0EB080309FA03F3134304939E
:10095000A246D2E7039B191D1B680391002BBBBF66
:100960005B4242F0020207930793B8BF04922378D8
:100970002E2B0CD163782A2B35D1039B1A1D1B68B3
:100980000392002BB8BF4FF0FF3302340593DFF81A
:10099000E4A0217803225046FFF72AFC40B140230F
:1009A000A0EB0A0003FA00F0049B03430134049314
:1009B00014F8011B2C488DF828100622FFF718FCAC
:1009C00000283FD0294B1BBB039B073323F00703B1
:1009D00008330393099B3B44099367E70CFB0232FE
:1009E0000C460120A5E700230134059319464FF07A
:1009F0000A0C204610F8012B303A092A03D9002BA3
:100A0000C5D00591C3E70CFB012104460123F0E7A3
:100A100003AB00932A46164B04A93046AFF300807F
:100A20000746781CD6D16B6ED90705D4AB899A05D9
:100A300002D4A86DFFF76BFEAB895B063FF512AFE2
:100A4000099811E703AB00932A46094B04A93046E5
:100A500000F080F8E4E700BFE8130008081400087D
:100A6000C813000828140008321400080000000011
:100A7000F30700082E1400082DE9F04716469946A2
:100A80008A680B69DDF820809342B8BF1346336053
:100A900091F8432007460C460AB1013333602368BE
:100AA000990642BF336802333360256815F00605A6
:100AB00006D104F1190AE36832689B1AAB4226DCBE
:100AC00094F84320131E226818BF012392062BD4EA
:100AD00004F1430249463846C04701301ED023681E
:100AE000E568326803F00603042B08BFAD1AA3685B
:100AF00022690CBF25EAE57500259342C4BF9B1A05
:100B0000ED1800261A34B5421AD1002008E001235E
:100B1000524649463846C047013003D14FF0FF30B6
:100B2000BDE8F0870135C6E7E1185A1C302081F88E
:100B30004300224494F8451082F843100233C7E77B
:100B40000123224649463846C0470130E6D00136E7
:100B5000D9E700002DE9FF470C469146277E0C9906
:100B6000782F80469A4604F1430207D8622F0AD8AC
:100B7000002F00F0D880582F00F0A38004F1420627
:100B800084F842703AE0A7F16303152BF6D801A070
:100B900050F823F0ED0B0008010C00087D0B000855
:100BA0007D0B00087D0B00087D0B0008010C000880
:100BB0007D0B00087D0B00087D0B00087D0B0008F5
:100BC0000D0D0008310C0008EF0C00087D0B00082B
:100BD0007D0B00082F0D00087D0B0008310C00086C
:100BE0007D0B00087D0B0008F70C00080B681A1D30
:100BF0001B680A6004F1420684F842300123A3E036
:100C0000256808682E0600F104030AD505680B6004
:100C1000002D03DA2D236D4284F843305E480A2309
:100C200019E015F0400F05680B6018BF2DB2EFE713
:100C30000B682568181D0860280601D51D6802E0AC
:100C40006906FBD51D8854486F2F0CBF08230A2363
:100C5000002184F843106668A660002EA2BF2168B8
:100C600021F0040121600DB9002E4DD01646B5FBD0
:100C7000F3F103FB1157C75D06F8017D2F46BB4218
:100C80000D46F4D9082B0BD12368DF0708D523695B
:100C900061689942DEBF302306F8013C06F1FF3659
:100CA000921B2261CDF800A04B4603AA2146404684
:100CB000FFF7E2FE01304CD14FF0FF3004B0BDE849
:100CC000F087354884F8457023680E681F0656F88B
:100CD000045B0E6014D5D90744BF43F020032360A2
:100CE0001DB9236823F0200323601023B0E7236895
:100CF00043F0200323607823284884F84530E3E755
:100D00005E0648BFADB2E6E71646BBE70B6826684D
:100D100060691D1D0D6035061B6801D5186002E075
:100D20007106FBD51880002323611646BAE70B68CD
:100D30001A1D0A601E68626800213046FFF758FAE3
:100D400008B1801B606063682361002384F843302E
:100D5000A8E72369324649464046D0470130ABD028
:100D600023689B0713D4E068039B9842B8BF1846DA
:100D7000A4E70123324649464046D04701309BD084
:100D80000135E36803995B1AAB42F2DCEBE700251F
:100D900004F11906F5E700BF391400084A140008E9
:100DA00038B5064D0023044608462B60FFF70EFBBE
:100DB000431C02D12B6803B1236038BD980000208A
:100DC00010B50C46B1F90E1000F0B4FA0028ABBF14
:100DD000636DA3891B1823F48053ACBF6365A381A3
:100DE00010BD2DE9F0411F468B89DB0505460C46F9
:100DF000164605D5B1F90E100223002200F0C8F9FD
:100E0000A389B4F90E1023F48053A38132463B46E4
:100E10002846BDE8F04100F069B810B50C46B1F9BC
:100E20000E1000F0B5F9431CA38915BF606523F4CB
:100E3000805343F48053A38118BFA38110BDB1F93F
:100E40000E1000F0D3B80000F8B50E461446054663
:100E500018B183690BB9FFF7BBFB214B9C422BD127
:100E60006C68A369A360A3891A072FD523696BB3A4
:100E700023692068C01A6369F6B28342374604DCEE
:100E80002146284600F048F930BBA368013BA36027
:100E900023685A1C22601E7063690130834204D0AB
:100EA000A389DB0706D50A2E04D12146284600F087
:100EB00033F988B93846F8BD0A4B9C4201D1AC6879
:100EC000CFE7094B9C4208BFEC68CAE72146284699
:100ED00000F01EF80028CBD04FF0FF37EAE700BF44
:100EE000E813000808140008C813000838B5074DB7
:100EF00004460846114600222A601A46FFF715FAF2
:100F0000431C02D12B6803B1236038BD9800002038
:100F1000324B70B51D6806460C4625B1AB6913B956
:100F20002846FFF755FB2E4B9C420FD16C68A389D6
:100F3000B4F90C2019072CD4DD0611D40923336031
:100F400042F04003A3814FF0FF303EE0254B9C422E
:100F500001D1AC68EBE7244B9C4208BFEC68E6E7A4
:100F6000580712D5616B41B104F14403994202D094
:100F7000304600F08FF900236363A38923F0240334
:100F8000A3810023636023692360A38943F00803DE
:100F9000A38123694BB9A38903F42073B3F5007FC0
:100FA00003D02146304600F029F9A089B4F90C207D
:100FB00010F001030AD00023A36063695B42A361C0
:100FC000236943B910F08000BAD170BD810758BFC2
:100FD0006369A360F4E70020F7E700BF000000208A
:100FE000E813000808140008C813000838B5064DB7
:100FF0000023044608462B60FFF7B3F9431C02D1D7
:101000002B6803B1236038BD980000208A892DE940
:10101000F041054610070C4658D44B68002B05DC00
:101020000B6C002B02DC0020BDE8F081E66A002E8C
:10103000F9D0002312F480522F682B6032D0606DFB
:10104000A3895A0705D56368C01A636B0BB1236C7B
:10105000C01A00230246E66A216A2846B047431CAC
:10106000A38906D129681D292CD82A4ACA40D60747
:1010700028D500226260D9042269226004D5421C6E
:1010800001D12B6803B96065616B2F600029CAD05C
:1010900004F14403994202D0284600F0FBF80020F6
:1010A0006063C1E7216A01232846B047411CC7D1CC
:1010B0002B68002BC4D01D2B01D0162B01D12F6023
:1010C000B1E7A38943F04003A381ADE70F69002F87
:1010D000A9D093070E6808BF4B690F6018BF0023A3
:1010E000A6EB07088B60B8F1000F9CDD216AA66AA9
:1010F00043463A462846B047002806DCA38943F019
:101100004003A3814FF0FF308EE70744A8EB0008AF
:10111000E9E700BF0100402038B50B6905460C46E1
:1011200013B90025284638BD18B183690BB9FFF7FC
:101130004FFA144B9C421BD16C68B4F90C30002B55
:10114000EFD0626ED00704D4990502D4A06DFFF7EA
:10115000DDFA28462146FFF759FF636EDA07054698
:10116000E0D4A3899B05DDD4A06DFFF7D0FAD9E7C1
:10117000054B9C4201D1AC68DFE7044B9C4208BFA1
:10118000EC68DAE7E813000808140008C813000840
:1011900038B5074D04460846114600222A601A4613
:1011A000FFF706F9431C02D12B6803B1236038BD59
:1011B0009800002070B50E46B1F90E10002996B0C7
:1011C00014461D4607DA00232B60B3891A0610D493
:1011D0004FF480630EE06A4600F0BEF80028F2DBB0
:1011E000019A02F47042A2F500535A425A412A6011
:1011F000EEE740230020236016B070BD8B8973B5E5
:101200009D0706460C4607D504F14703236023617A
:101210000123636102B070BD01AB6A46FFF7CAFFEC
:10122000009905463046FFF773FA48B9B4F90C3017
:101230009A05EFD423F0030343F00203A381E3E70D
:101240000D4BB362A389206043F08003A381009B10
:101250006361019B20615BB1B4F90E10304600F070
:101260008DF828B1A38923F0030343F00103A38180
:10127000A0890543A581CDE7690500080148FFF76E
:1012800045BA00BF900000200148FFF740BA00BFF8
:101290009000002037B5002948D051F8043C019057
:1012A000002BA1F10404B8BFE418FFF7E7FF204AC0
:1012B00001981368154633B96360146003B0BDE844
:1012C0003040FFF7E1BFA3420BD921686218934277
:1012D00004BF1A685B68636004BF521822602C6008
:1012E000ECE71A465B680BB1A342FAD911685518AE
:1012F000A5420BD1246821445418A3421160DDD1CA
:101300001C685B68536021441160D7E702D90C2345
:101310000360D3E7256861198B4204BF19685B68D5
:10132000636004BF491921605460C7E703B030BD52
:101330008400002038B5074D0446084611460022B7
:101340002A601A46FEF7D4FF431C02D12B6803B172
:10135000236038BD9800002038B5074D00230446AF
:10136000084611462B60FFF708F8431C02D12B6892
:1013700003B1236038BD00BF9800002038B5064D8A
:101380000023044608462B60FFF707F8431C02D1F0
:101390002B6803B1236038BD98000020F8B500BF6A
:1013A000F8BC08BC9E467047F8B500BFF8BC08BC46
:0413B0009E4670479E
:1013B40048656C6C6F20576F726C642100000000EC
:1013C40004000020000000000000000000000000F5
:1013D4000000000000000000000000000000000009
:1013E40000000000000000000000000000000000F9
:1013F40000000000000000000000000000000000E9
:1014040000000000000000000000000000000000D8
:1014140000000000000000000000000000000000C8
:1014240000000000232D302B2000686C4C00656602
:101434006745464700303132333435363738394121
:101444004243444546003031323334353637383937
:0814540061626364656600003B
:04145C00D5010008AE
:04146000B1010008CE
:101464000400002000000000E8130008081400082D
:10147400C813000800000000000000000000000085
:101484000000000000000000000000000000000058
:101494000000000000000000000000000000000048
:1014A4000000000000000000000000000000000038
:1014B4000000000000000000000000000000000028
:0414C4000000000024
:0400000508000439B2
:00000001FF
