:020000040800F2
:1000000000000220E101000831020008310200086E
:10001000310200083102000831020008000000002F
:100020000000000000000000000000003102000895
:10003000310200080000000031020008310200080F
:1000400031020008310200083102000831020008C4
:1000500031020008310200083102000831020008B4
:1000600031020008310200083102000831020008A4
:100070003102000831020008310200083102000894
:1000800031020008310200083102000800000000BF
:100090000000000000000000000000003102000825
:1000A0003102000831020008310200083102000864
:1000B0003102000831020008310200083102000854
:1000C0003102000831020008310200083102000844
:1000D000310200083102000831020008000000006F
:1000E000310200083102000831020008000000005F
:1000F00000000000000000000000000031020008C5
:10010000000000003102000831020008310200083E
:1001100000000000000000000000000000000000DF
:1001200031020008310200083102000831020008E3
:100130003102000800000000000000000000000084
:100140000000000000000000000000003102000874
:1001500031020008310200083102000831020008B3
:100160003102000831020008000000000000000019
:10017000000000000000000000000000000000007F
:100180000000000031020008000000000000000034
:080190003102000831020008F1
:1001980010B5054C237833B9044B13B10448AFF3B9
:1001A80000800123237010BD000000200000000023
:1001B8007C02000808B5034B1BB103490348AFF3A1
:1001C800008008BD00000000040000207C02000838
:1001D80080B400AFFEE700000D488546AFF300800D
:1001E8000C480D490D4A002302E0D458C45004338A
:1001F800C4188C42F9D30A4A0A4C002301E0136060
:100208000432A242FBD300F011F8FFF7E1FFFEE74A
:100218000000022000000020000000209C020008CE
:10022800000000201C000020FEE7000070B50D4D06
:100238000D4C641BA4100026A64209D10B4D0C4C92
:1002480000F018F8641BA4100026A64205D170BD62
:1002580055F8043B98470136EEE755F8043B9847B4
:100268000136F2E79402000894020008940200089C
:1002780098020008F8B500BFF8BC08BC9E46704755
:0C028800F8B500BFF8BC08BC9E467047EB
:04029400BD010008A0
:0402980099010008C0
:04000005080001E10D
:00000001FF
